:03000000020100FA
:1001000012011CE569605812016D1201E380FEEBDB
:100110008CF0A4FDE98AF0A4C39DFD22A860A96427
:10012000AA68AB65AC6712010FED88F0A4F557A87B
:1001300061A963AA68AB65AC6612010FED88F0A4F3
:10014000F558A862A963AA67AB64AC6612010FED0B
:1001500088F0A4F559E5572559C39558F56922C08B
:1001600000787076FF08B879FAD00080A0A964AA58
:1001700068AB65AC6712010F8D70A965AA66AB63A9
:10018000AC6812010F8D71A963AA67AB64AC6612EB
:10019000010F8D72A962AA67AB61AC6812010F8D65
:1001A00073A960AA68AB62AC6612010F8D74A96175
:1001B000AA66AB60AC6712010F8D75A961AA65AB29
:1001C00062AC6412010F8D76A962AA63AB60AC6564
:1001D00012010F8D77A960AA64AB61AC6312010FA5
:1001E0008D7822E5718573F0F57385F071E5728580
:1001F00076F0F57685F072E5758577F0F57785F020
:10020000757870E6FAC39480500BEA8569F084F63D
:1002100008B879EF22EAF42401FAEA8569F084F457
:020220002401B7
:06022200F608B879DC22A9
:00000001FF
