:03000000020E816C
:0C0E8100787FE4F6D8FD75813A020EC8B7
:100B7F0048656C6C6F2C20506C6561736520656ED9
:100B8F00746572204163636F756E74204E756D626C
:100B9F0065720D0A004163636F756E7420486F6C48
:100BAF006465723A2053746576656E0D0A00416371
:100BBF00636F756E742042616C616E63653A2000DD
:100BCF000D0A004163636F756E7420486F6C646526
:100BDF00723A20476F72646F6E0D0A004E6F20736A
:100BEF00756368206163636F756E742C20706C651C
:100BFF0061736520656E7465722076616C6964201F
:100C0F0064657461696C730D0A0057697468647266
:100C1F0061772073746174652C20656E7465722022
:100C2F006163636F756E74206E756D6265720D0A08
:100C3F0000456E74657220416D6F756E742C20695E
:100C4F006E2068756E64726564730D0A00496E7666
:100C5F00616C696420416D6F756E740D0A00496E89
:100C6F0073756666696369656E742046756E647325
:100C7F000D0A0052656D61696E696E672042616C85
:100C8F00616E63653A2000353030204E6F746573A6
:100C9F003A2000313030204E6F7465733A20005087
:100CAF0072657373204120666F72204163636F75A5
:100CBF006E7420646973706C617920616E64205763
:100CCF0020666F72207769746864726177696E67E6
:080CDF0020636173680D0A0037
:100FBF00C101C1000614000000000000061A000065
:100FCF00000000000608000000000000060E0000F0
:040FDF00000000000E
:100F6300E4F5A0C282C280C2817F38FE12101B1238
:100F73000FE47F067E0012101B120FE47F0C7E002D
:100F830012101B120FE47F017E0012101B120FE4DC
:070F93007F807E0002101BAD
:040FE4007F047E0008
:100FE800E4FDFCC3ED9FEC9E5015E4FBFA0BBB003F
:0F0FF800010ABA01F8BB7EF50DBD00010C80E4C3
:0110070022C6
:10101B00C280C281D2828FA07F0A7E00120FE8C2EB
:02102B0082221F
:10102D00D280C281D2828FA07F0A7E00120FE8C2C9
:02103D0082220D
:100F9A008B388A39893AAB38AA39A93A120CE760F0
:100FAA0013053AE53A7002053914F9120CE7FF12F3
:050FBA00102D80E22271
:0A0DD1007B007A007914AF30AE2FDA
:100DDB008E338F348B358A3689377C277D10120DF5
:100DEB0046EF2430120D00AE33AF347C277D10124A
:100DFB000D467E037FE8CFCDCFCECCCE120D46EF86
:100E0B002430AB35AA36A937900001120D12AE3340
:100E1B00AF347C037DE8120D467E007F64CFCDCFCF
:100E2B00CECCCE120D46EF2430AB35AA36A9379077
:100E3B000002120D12AE33AF347C007D64120D46EE
:100E4B007E007F0ACFCDCFCECCCE120D46EF243015
:100E5B00AB35AA36A937900003120D12AE33AF345F
:100E6B007C007D0A120D46ED2430AB35AA36A9372E
:060E7B00900004020D12BC
:10100800758920758DF3759850D28ED2ACD2AF7594
:03101800878022AC
:081059008F993001FDC2012254
:100F0D00AE29AF2A7C017DF4120D9B8E2B8F2CAE5A
:100F1D0029AF2A7C017DF4120D9B7E007F64CFCD1D
:100F2D00CFCECCCE120D9B8E2D8F2E7BFF7A0C79D2
:010F3D008231
:100F3E008B338A348935AB33AA34A935120CE7606A
:100F4E00130535E5357002053414F9120CE7FF125E
:050F5E00105980E222A1
:09104F00E4FF3000FDC200AF997E
:011058002275
:0300230002103F89
:10103F00309905C299D20132309804C298D2003249
:10080000E4F521752F2775301075312775321012D8
:100810000F63121008E52124A9607524F6600B24EB
:10082000EA606D24366003020B677BFF7A0B797FE9
:10083000120F3E12104F8F22E52224CE6021047049
:10084000467BFF7A0B79A4120F3E7BFF7A0B79BDB2
:10085000120F3E120DD17B007A007914020B4B7BF4
:10086000FF7A0B79D2120F3E7BFF7A0B79BD120F04
:100870003E7B007A00791AAF32AE31120DDB7B007D
:100880007A00791A020B4B7BFF7A0B79EB020B543F
:100890007BFF7A0C7919120F3E12104F8F22E5223E
:1008A00024CE70030209FE046003020B5C7BFF7A16
:1008B0000B79A4120F3E7BFF7A0B79BD120F3E120B
:1008C0000DD17B007A007914120F3E7BFF7A0B79F1
:1008D000CF120F3E7BFF7A0C7940120F3E12104F61
:1008E0008F2412104F8F23E52424D0F528E434FF01
:1008F000F527EF24D0F526E434FFF525D3E5289439
:100900000AE5276480948040047F0180027F00C351
:10091000E5276480948050047E0180027E00EE4FC3
:10092000FFD3E526940AE5256480948040047E0187
:1009300080027E00EE4FFFC3E52564809480500462
:100940007E0180027E00EE4F60097BFF7A0C795CAD
:10095000020B54AE27AF287C007D0A120D34E52629
:100960002FFFE5253EFE7D64120D348E298F2AD39C
:10097000E52A9530E52F6480F8E5296480984009E0
:100980007BFF7A0C796D0209FBC3E530952AF530BF
:10099000E52F9529F52F120F0D120DD17B007A004E
:1009A0007914120F3E7BFF7A0B79CF120F3E7BFF3B
:1009B0007A0C7996120F3E7B007A007908AF2CAE44
:1009C0002B120DDB7B007A007908120F3E7BFF7A39
:1009D0000B79CF120F3E7BFF7A0C79A2120F3E7B70
:1009E000007A00790EAF2EAE2D120DDB7B007A005F
:1009F000790E120F3E7BFF7A0B79CF020B547BFFEF
:100A00007A0B79D2120F3E7BFF7A0B79BD120F3E23
:100A10007B007A00791AAF32AE31120DDB7B007A9F
:100A200000791A120F3E7BFF7A0B79CF120F3E7BB3
:100A3000FF7A0C7940120F3E12104F8F2412104F84
:100A40008F23E52424D0F528E434FFF527EF24D0C4
:100A5000F526E434FFF525D3E528940AE5276480DC
:100A6000948040047F0180027F00C3E52764809466
:100A70008050047E0180027E00EE4FFFD3E5269475
:100A80000AE5256480948040047E0180027E00EEA9
:100A90004FFFC3E5256480948050047E0180027E70
:100AA00000EE4F6003020B57AE27AF287C007D0A93
:100AB000120D34E5262FFFE5253EFE7D64120D3430
:100AC0008E298F2AD3E52A9532E5316480F8E5290D
:100AD0006480984003020B57C3E532952AF532E54E
:100AE000319529F531120F0D7B007A00791AAF325A
:100AF000AE31120DDB7B007A00791A120F3E7BFFBC
:100B00007A0B79CF120F3E7BFF7A0C7996120F3E4B
:100B10007B007A007908AF2CAE2B120DDB7B007ABC
:100B2000007908120F3E7BFF7A0B79CF120F3E7BC4
:100B3000FF7A0C79A2120F3E7B007A00790EAF2E5D
:100B4000AE2D120DDB7B007A00790E120F3E7BFF7B
:100B50007A0B79CF120F3EE4F52180197BFF7A0BD7
:100B600079EB120F3E800E7BFF7A0C79AE120F3EAE
:0F0B700012104F8F217F647E00120FE8020815CC
:100E8D00020800E493A3F8E493A34003F68001F273
:100E9D0008DFF48029E493A3F85407240CC8C33366
:100EAD00C4540F4420C8834004F456800146F6DF35
:100EBD00E4800B0102040810204080900FBFE47EF7
:100ECD00019360BCA3FF543F30E509541FFEE4932A
:100EDD00A360010ECF54C025E060A840B8E493A3F1
:100EED00FAE493A3F8E493A3C8C582C8CAC583CA1C
:100EFD00F0A3C8C582C8CAC583CADFE9DEE780BED4
:010FE300000D
:100CE700BB010689828A83E0225002E722BBFE020B
:090CF700E32289828A83E493223E
:100D0000BB010689828A83F0225002F722BBFE01D2
:020D1000F322CC
:100D1200F8BB010DE58229F582E5833AF583E8F017
:100D2200225006E92582C8F622BBFE05E92582C8C3
:020D3200F222AB
:100D3400EF8DF0A4A8F0CF8CF0A428CE8DF0A42ED3
:020D4400FE228D
:100D4600BC000BBE0029EF8DF084FFADF022E4CC91
:100D5600F875F008EF2FFFEE33FEEC33FCEE9DEC5A
:100D6600984005FCEE9DFE0FD5F0E9E4CEFD22EDA0
:100D7600F8F5F0EE8420D21CFEADF075F008EF2FEA
:100D8600FFED33FD4007985006D5F0F222C398FDDB
:050D96000FD5F0EA2278
:100D9B00C2D5EC30E709B2D5E4C39DFDE49CFCEE73
:100DAB0030E715B2D5E4C39FFFE49EFE120D46C398
:100DBB00E49DFDE49CFC8003120D4630D507C3E493
:060DCB009FFFE49EFE22E2
:00000001FF
