:100C1C00202020204B6579626F6172642020202097
:100C2C000020202020205361286C6F772920202061
:100C3C002000202020202020205265202020202051
:100C4C002020002020202020202047612020202050
:100C5C0020202000202020202020204D612020203A
:100C6C002020202000202020202020205061202027
:100C7C0020202020200020202020202044686120DB
:100C8C0020202020202000202020202020204E6901
:100C9C0020202020202020002020202020536128EC
:100CAC0068696768292020200020202020205369B3
:0A0CBC006C656E63652020202000A7
:100EBB00100800F0010E012C013E0164018A01BAF9
:020ECB0001D64E
:100E1700E4F5A0C282C280C2817F38FE120ECE12D4
:100E27000E557F067E00120ECE120E557F0C7E00E9
:100E3700120ECE120E557F017E00120ECE120E55E7
:070E47007F807E00020ECE49
:0B0E4E007F807E00120ECE7F047E002D
:100E5900E4FDFCC3ED9FEC9E5015E4FBFA0BBB00CF
:0F0E6900010ABA01F8BB7EF50DBD00010C80E453
:010E78002257
:100ECE00C280C281D2828FA07F0A7E00120E59C2CA
:020EDE0082226E
:100EE000D280C281D2828FA07F0A7E00120E59C2A8
:020EF00082225C
:100E79008B228A238924AB22AA23A924120A8460FB
:100E8900130524E5247002052314F9120A84FF12BC
:050E99000EE080E222E2
:100D9600EF24FFFFEE34FFAB07FA3395E0F9F87F57
:100DA600407E427D0F7C00120D52C374FE9FF519E2
:100DB60074FF9EF518FEAF197C017D00120A9D8F07
:100DC6008CAE18AF197C017D00120A9D8D8AD28CDB
:010DD60022FA
:03000B00020DD70C
:100DD700C0E0C0F0C0D075D000C000C004C005C0DE
:100DE70006C007B287AE18AF197C017D00120A9DB5
:100DF7008F8CAE18AF197C017D00120A9D8D8AD0A9
:100E070007D006D005D004D000D0D0D0F0D0E03243
:100E9E00E4FFFEE4FDFC0DBD00010CBC01F8BD7EBF
:0C0EAE00F50FBF00010EEF64144E70E75A
:010EBA002215
:10080000C2B4C2B5C2B6C2B753B00FA2B182B082F1
:10081000B2E433FF20B3047E0180027E00EE5F70FD
:10082000E753B00FA2B182B082B2E433FF30B30419
:100830007E0180027E00EE5F70E7120E9E53B00FC5
:10084000A2B182B082B2E433FF30B3047E018002F1
:100850007E00EE5F70B2D2B4D2B5D2B6C2B7A2B447
:10086000E433751A00F51BA2B5E433751C00F51DC1
:10087000A2B6E433751E00F51FA2B7E4337520005D
:10088000F521452024FF92B4E51A451B24FF92B5BB
:10089000E51C451D24FF92B6E51E451F24FF92B7B7
:1008A000A2B182B082B2E433FF30B3047E01800291
:1008B0007E00EE5F70A8AFB0EF120AD30A72BD0AD5
:1008C0004ABE0A22D709FADB09D2DD09AADE09826B
:1008D000E7095AEB08F7ED08DEEE00000800120EFB
:1008E00017120E4E7BFF7A0C791C120E797FE87E70
:1008F00003120E59020800120E17120E4E7BFF7AD9
:100900000C792D120E79758911D2A9D2AFE509247F
:10091000FFFFE50834FFAB07FA3395E0F9F87F40B5
:100920007E427D0F7C00120D52C374FE9FF5197438
:10093000FF9EF518FEAF197C017D00120A9D8F8C79
:10094000AE18AF197C017D00120A9D8D8AD28CE50C
:10095000B064ED60FAC28C020800120E17120E4E3F
:100960007BFF7A0C793E120E79758911D2A9D2AF2C
:10097000AF0BAE0A120D96E5B064EB60FAC28C02C2
:100980000800120E17120E4E7BFF7A0C794F120ED2
:1009900079758911D2A9D2AFAF0DAE0C120D96E5C3
:1009A000B064E760FAC28C020800120E17120E4EF5
:1009B0007BFF7A0C7960120E79758911D2A9D2AFBA
:1009C000AF0FAE0E120D96E5B064DE60FAC28C0277
:1009D0000800120E17120E4E7BFF7A0C7971120E60
:1009E00079758910D2A9D2AFAF11AE10120D96E56C
:1009F000B064DD60FAC28C020800120E17120E4EAF
:100A00007BFF7A0C7982120E79758911D2A9D2AF47
:100A1000AF13AE12120D96E5B064DB60FAC28C0221
:100A20000800120E17120E4E7BFF7A0C7993120EED
:100A300079758911D2A9D2AFAF15AE14120D96E512
:100A4000B064D760FAC28C020800120E17120E4E64
:100A50007BFF7A0C79A4120E79758911D2A9D2AFD5
:100A6000AF17AE16120D96E5B064BE60FAC28C02E6
:100A70000800120E17120E4E7BFF7A0C79B5120E7B
:040A800079020800EF
:03000000020CC629
:0C0CC600787FE4F6D8FD758124020D0D46
:100A8400BB010689828A83E0225002E722BBFE0270
:090A9400E32289828A83E49322A3
:100A9D00C2D5EC30E709B2D5E4C39DFDE49CFCEE74
:100AAD0030E715B2D5E4C39FFFE49EFE120AF9C3E9
:100ABD00E49DFDE49CFC8003120AF930D507C3E4E4
:060ACD009FFFE49EFE22E3
:100D5200C2D5E830E70FB2D5E4C39BFBE49AFAE4CC
:100D620099F9E498F8EC30E717B2D5120D88120B16
:100D72008AE4C39BFBE49AFAE499F9E498F88003C5
:100D8200120B8A30D50DE4C39FFFE49EFEE49DFD65
:040D9200E49CFC22BF
:100AD300D083D082F8E4937012740193700DA3A3B2
:100AE30093F8740193F5828883E4737402936860C6
:060AF300EFA3A3A380DFC6
:100CD200020800E493A3F8E493A34003F68001F230
:100CE20008DFF48029E493A3F85407240CC8C33323
:100CF200C4540F4420C8834004F456800146F6DFF2
:100D0200E4800B0102040810204080900EBBE47EB8
:100D1200019360BCA3FF543F30E509541FFEE493E6
:100D2200A360010ECF54C025E060A840B8E493A3AD
:100D3200FAE493A3F8E493A3C8C582C8CAC583CAD8
:100D4200F0A3C8C582C8CAC583CADFE9DEE780BE90
:010ECD000024
:100AF900BC000BBE0029EF8DF084FFADF022E4CCE1
:100B0900F875F008EF2FFFEE33FEEC33FCEE9DECA9
:100B1900984005FCEE9DFE0FD5F0E9E4CEFD22EDEF
:100B2900F8F5F0EE8420D21CFEADF075F008EF2F39
:100B3900FFED33FD4007985006D5F0F222C398FD2A
:050B49000FD5F0EA22C7
:100B4E0075F008758200EF2FFFEE33FECD33CDCC5E
:100B5E0033CCC58233C5829BED9AEC99E5829840E1
:100B6E000CF582EE9BFEED9AFDEC99FC0FD5F0D6BE
:100B7E00E4CEFBE4CDFAE4CCF9A88222B800C1B9E8
:100B8E000059BA002DEC8BF084CFCECDFCE5F0CB26
:100B9E00F97818EF2FFFEE33FEED33FDEC33FCEB5F
:100BAE0033FB10D703994004EB99FB0FD8E5E4F91A
:100BBE00FA227818EF2FFFEE33FEED33FDEC33FC07
:100BCE00C933C910D7059BE99A4007EC9BFCE99AFB
:100BDE00F90FD8E0E4C9FAE4CCFB2275F010EF2F40
:100BEE00FFEE33FEED33FDCC33CCC833C810D70740
:100BFE009BEC9AE899400AED9BFDEC9AFCE899F87B
:0E0C0E000FD5F0DAE4CDFBE4CCFAE4C8F9220D
:00000001FF
