:03000000020B41AF
:0C0B4100787FE4F6D8FD758149020B882E
:100DC600566F6C742E3A2000566F6C742E3A2000C3
:040DD600206D560036
:100D9100C100062D00000000000006210000000037
:0E0DA1000000062700000000000002340000E1
:100D1100E4F5A0C282C280C2817F38FE120DDA12D0
:100D21000D6D7F067E00120DDA120D6D7F0C7E00B7
:100D3100120DDA120D6D7F017E00120DDA120D6DAA
:070D41007F807E00020DDA45
:040D6D007F047E0081
:100D7100E4FDFCC3ED9FEC9E5015E4FBFA0BBB00B8
:0F0D8100010ABA01F8BB7EF50DBD00010C80E43C
:010D90002240
:100A9B008E0C8F0D8B0E8A0F89107C277D10120AFE
:100AAB0012EF24301209DEAE0CAF0D7C277D101235
:100ABB000A127E037FE8CFCDCFCECCCE120A12EF37
:100ACB002430AB0EAA0FA9109000011209F0AE0C46
:100ADB00AF0D7C037DE8120A127E007F64CFCDCF71
:100AEB00CECCCE120A12EF2430AB0EAA0FA9109067
:100AFB0000021209F0AE0CAF0D7C007D64120A12DD
:100B0B007E007F0ACFCDCFCECCCE120A12EF24308F
:100B1B00AB0EAA0FA9109000031209F0AE0CAF0D8B
:100B2B007C007D0A120A12ED2430AB0EAA0FA9101D
:060B3B009000040209F025
:100DDA00C280C281D2828FA07F0A7E00120D71C2A8
:020DEA00822263
:100DEC00D280C281D2828FA07F0A7E00120D71C286
:020DFC00822251
:100D48008B0C8A0D890EAB0CAA0DA90E1209C56071
:100D580013050EE50E7002050D14F91209C5FF12F0
:050D68000DEC80E22209
:0C0DFE0075C33F43B104D2AF43C3402291
:080CB5008F1B8E1A8D198C189B
:100CBD00C2007810120A75E48FC53000FDA933C249
:100CCD0000AF1BAE1AAD19AC187808120A758FC596
:100CDD003000FDAB33C200E51BFF8FC53000FDAD0D
:100CED0033EB7B00FA7E00E97810C333CE33CED8D8
:100CFD00F92BFFEE3AFE7C00EF2DFFEC3EFE339517
:030D0D00E0FDFC0A
:010D100022C0
:03004B00020DB0F3
:100DB000C0E0C0D0E5C454F02480700585C533D2AE
:060DC00000D0D0D0E032AB
:030E0A00D294225D
:020C5000AB07F0
:100C5200E4F513F512751101F510EF75F010A47E8D
:100C6200005470FFEE3395E0FDFCEF4480FFED7819
:100C720008120A888F178E168D158C14E513251706
:100C8200FFE5123516FEE5113515FDE5103514FCAC
:100C9200C294120CB58F0F8E0E8D0D8C0CD294E572
:100CA2000FF50FE50E5403F50EE4F50DF50CAE0E3F
:020CB200AF0F82
:010CB400221D
:0E0BCD00E4F508F509120DFE120E0A120D11C4
:100BDB007F03120C508E0A8F0BAC0AAD0BE412097B
:100BEB000B7B827A73794E78401208001209448E7F
:100BFB00088F097B007A00792DAF0BAE0A120A9B86
:100C0B007B007A007921AF09AE08120A9B7F807EA8
:100C1B0000120DDA7BFF7A0D79C6120D487B007A34
:100C2B00007921120D487BFF7A0D79D6120D48E51C
:100C3B003525E02436F8A60808A6090535E53570F4
:030C4B008F0534DE
:020C4E00808B99
:10080000EC4D6011E8497017ED33EC3304600DE4F2
:10081000FCFFFEFD22E933E8330470F80209B01250
:10082000097B58046009E4CC248150062850090251
:1008300009BA2840030209B7C0E0EB4A7044B98006
:1008400006D0E0FB0209A6EF4E701CBD8008EBFF4E
:10085000EAFEE9FD80EBE98DF0A4FEE5F00208E98F
:10086000E9CDF9EAFEEBFFEF89F0A4FCE5F0CE89D3
:10087000F0A42EFFE435F0CD89F0A42DFEE435F090
:100880008067EF4E7005BD80D780C3EF8BF0A4ACBE
:10089000F0EE8BF0A42CFCE435F0F8EF8AF0A42CF9
:1008A000E5F038FCE433CB8DF0A42CFCE5F03BF80C
:1008B000EE8AF0A42CFCE5F038F8E433CF89F0A4FC
:1008C0002CFCE5F038CF3400CE89F0A42FFFE5F002
:1008D0003EFEE433C98DF0A42EFEE5F039CD8AF05A
:1008E000A42FFFE5F03EFEE43DFD33D0E0FB5007D2
:1008F0000BBB000F0209BAEC2CFCEF33FFEE33FE0A
:06090000ED33FD02099237
:1009060075F020800E75F010800575F0087D007E6C
:10091600007F003392D530D503120A67EC334010BE
:10092600EF33FFEE33FEED33FDEC33FCD5F0ED2275
:0E093600E5F0247EA2D513CC92E7CDCEFF22B1
:10094400EDD2E7CD33EC3392D524814006E4FFFEAB
:10095400FDFC22FCE4CFCECDCC24E0501174FF800A
:10096400EDC3CC13CCCD13CDCE13CECF13CF0470A7
:07097400F030D5DE020A6736
:10097B00E9D2E7C933E833F892D5EDD2E7CD33ECC2
:07098B0033FC5002B2D5223B
:10099200EC30E7100FBF000C0EBE00080DBD0004C6
:1009A2000BEB6014A2D5EB13FCED92E7FD2274FF72
:1009B200FCFDFEFF22E480F8A2D574FF13FC7D80CB
:0309C200E480EFDF
:100B4D00020BCDE493A3F8E493A34003F68001F2E6
:100B5D0008DFF48029E493A3F85407240CC8C333A9
:100B6D00C4540F4420C8834004F456800146F6DF78
:100B7D00E4800B0102040810204080900D91E47E6A
:100B8D00019360BCA3FF543F30E509541FFEE4936D
:100B9D00A360010ECF54C025E060A840B8E493A334
:100BAD00FAE493A3F8E493A3C8C582C8CAC583CA5F
:100BBD00F0A3C8C582C8CAC583CADFE9DEE780BE17
:010DAF000043
:1009C500BB010689828A83E0225002E722BBFE0230
:0909D500E32289828A83E4932263
:1009DE00BB010689828A83F0225002F722BBFE01F8
:0209EE00F322F2
:1009F000F8BB010DE58229F582E5833AF583E8F03D
:100A0000225006E92582C8F622BBFE05E92582C8E8
:020A1000F222D0
:100A1200BC000BBE0029EF8DF084FFADF022E4CCC8
:100A2200F875F008EF2FFFEE33FEEC33FCEE9DEC91
:100A3200984005FCEE9DFE0FD5F0E9E4CEFD22EDD7
:100A4200F8F5F0EE8420D21CFEADF075F008EF2F21
:100A5200FFED33FD4007985006D5F0F222C398FD12
:050A62000FD5F0EA22AF
:0E0A6700C3E49FFFE49EFEE49DFDE49CFC22A0
:100A7500E8600FECC313FCED13FDEE13FEEF13FF5F
:030A8500D8F12283
:100A8800E8600FEFC333FFEE33FEED33FDEC33FCCC
:030A9800D8F12270
:00000001FF
