:100E7F0020202020496E70757420313A20202020C8
:100E8F000020202020496E70757420323A202020D7
:100E9F002000202050726564696374696F6E203A78
:100EAF002020005028436C6173732031293D00507E
:0B0EBF0028436C6173732032293D0052
:100ECA00E4F5A0C282C280C2817F38FE120F51129D
:100EDA000F087F067E00120F51120F087F0C7E004A
:100EEA00120F51120F087F017E00120F51120F08C4
:070EFA007F807E00020F5112
:0B0F01007F807E00120F517F047E00F5
:100F0C00E4FDFCC3ED9FEC9E5015E4FBFA0BBB001B
:0F0F1C00010ABA01F8BB7EF50DBD00010C80E49F
:010F2B0022A3
:100F5100C280C281D2828FA07F0A7E00120F0CC292
:020F61008222EA
:100F6300D280C281D2828FA07F0A7E00120F0CC270
:020F73008222D8
:100F2C008B148A158916AB14AA15A916120BAA6074
:100F3C00130516E5167002051514F9120BAAFF120B
:050F4C000F6380E222AA
:080E0E008F178E168D158C1450
:100E1600E4FFFE7D7A7C44AB17AA16A915A8141226
:100E260008F8120ADCAB07AA067C007D64120BD513
:100E36008E188F197C007D0AAF03AE02120BD58C7B
:100E46001A8D1BAE02AF037C007D0A120BD57C0007
:100E56007D0A120BD58D827F30120F637F2E120F03
:100E660063E5192430FF120F63E5822430FF120F69
:090E760063E51B2430FF020F6349
:100C8E007508FF7509DB750A00750B05750C007587
:100C9E000D07120ECA120F017BFF7A0E797F120F0B
:100CAE002C7F887E13120F0CE590540F750E00F5F5
:100CBE000F120ECA120F017BFF7A0E7990120F2CB3
:100CCE007F887E13120F0CE590540FFB7A00AC0A4E
:100CDE00AD0BAE0EAF0F120BC3E5092FF582E50873
:100CEE003EF583AC0CAD0D7E00AF03120BC3EF25AA
:100CFE0082FFEE3583FEC3E49FFDE49EFC120AA341
:100D0E00120DACE4FBFA7980783F120807A804A90B
:100D1E0005AA06AB07E4FFFE7D807C3F120A018F19
:100D2E00138E128D118C10120ECA120F017BFF7AC8
:100D3E000E79B2120F2CAB13AA12A911A810E4FF50
:100D4E00FE7D807C3F120803120E0E7FC0120F0331
:100D5E007BFF7A0E79BE120F2CAF13AE12AD11AC13
:060D6E0010120E0E80FEC3
:10080000020B48E86480F8E933E83360110460F0D3
:10081000ED33EC337009E8FCE9FDEAFEEBFF22045E
:1008200060DED3EB9FEA9EE99DE8C2E78CF0C2F759
:1008300095F0400CE8CCF8E9CDF9EACEFAEBCFFB25
:10084000120B1385D0F05804700320D5B3E8047060
:10085000075002B2D5020B5292D5EC0460F7E4CCFB
:10086000C0E0C398F8603B94186008400DD0E0FBEE
:10087000020B2AE4FBFAC9FC8028E830E406E4C94C
:10088000FBE4CAFCE830E305E4C9CACBFCE8540742
:100890006010F8C3E913F9EA13FAEB13FBEC13FC4D
:1008A000D8F130F52FC3E49CFCEF9BFFEE9AFEEDF0
:1008B00099FDD0E0FBEF4E4D4C701222DB03020B92
:1008C0004FEC2CFCEF33FFEE33FEED33FDED30E764
:1008D000EB020B2AEF2BFFEE3AFEED39FDD0E0FBE9
:1008E00050130BBB0003020B52ED13FDEE13FEEF92
:0808F00013FFEC13FC020B2ABC
:1008F800EC4D6011E8497017ED33EC3304600DE4FA
:10090800FCFFFEFD22E933E8330470F8020B4812BD
:100918000B1358046009E4CC2481500628500902BE
:100928000B52284003020B4FC0E0EB4A7044B980D9
:1009380006D0E0FB020B3EEF4E701CBD8008EBFFBB
:10094800EAFEE9FD80EBE98DF0A4FEE5F00209E19D
:10095800E9CDF9EAFEEBFFEF89F0A4FCE5F0CE89DA
:10096800F0A42EFFE435F0CD89F0A42DFEE435F097
:100978008067EF4E7005BD80D780C3EF8BF0A4ACC5
:10098800F0EE8BF0A42CFCE435F0F8EF8AF0A42C00
:10099800E5F038FCE433CB8DF0A42CFCE5F03BF813
:1009A800EE8AF0A42CFCE5F038F8E433CF89F0A403
:1009B8002CFCE5F038CF3400CE89F0A42FFFE5F009
:1009C8003EFEE433C98DF0A42EFEE5F039CD8AF061
:1009D800A42FFFE5F03EFEE43DFD33D0E0FB5007D9
:1009E8000BBB000F020B52EC2CFCEF33FFEE33FE77
:0609F800ED33FD020B2AA5
:1009FE00020B52EC5D046005E859047003020B48CB
:100A0E00120B13580460F6EC4860F2EC7004FDFE15
:100A1E00FF22C860DB2481C85009C39860025006CB
:100A2E00020B4F9850CAF582E9294B4A7005AB82EA
:100A3E00020B3E75F0007C1A7880C3EF9BEE9AEDA8
:100A4E0099400DC3EF9BFFEE9AFEED99FDE842F043
:100A5E00DC23ACF0D0E0FFD0E0FED0E0FDAB822096
:100A6E00E7101BEB60BAEC2CFCEF33FFEE33FEED20
:100A7E0033FD020B2AE803F830E705C0F075F000ED
:100A8E00EF2FFFEE33FEED33FD40B830E7C280AA04
:100A9E0075F020800E75F010800575F0087D007ED3
:100AAE00007F003392D530D503120C0BEC3340107F
:100ABE00EF33FFEE33FEED33FDEC33FCD5F0ED22DC
:0E0ACE00E5F0247EA2D513CC92E7CDCEFF2218
:100ADC00EDD2E7CD33EC3392D524814006E4FFFE12
:100AEC00FDFC22FCE4CFCECDCC24E0501174FF8071
:100AFC00EDC3CC13CCCD13CDCE13CECF13CF04700E
:070B0C00F030D5DE020C0BF6
:100D740033DA929E35B16011377FE5FE39218489DB
:100D84003AAEC3FF3C1D955B3D6358473E75FDF08D
:100D94003F3172183F800000C2D5020B52020B484B
:100DA400BD80FA50F3020B4FED33EC330460F17B5A
:100DB4003B7AAA79B8783F1208F8ED33EC3392D530
:100DC400247B5011A2D570DB500BED4480240450D9
:100DD40004A2D580CEEFFBEEFAEDF9ECF8120ADCB2
:100DE400EFF582F404FC120AA8120807C082900DE1
:100DF400747409120B6CED33CC33D0F092D525F01A
:0A0E0400A2D57001C313CC13FD2228
:100B1300E9D2E7C933E833F892D5EDD2E7CD33EC28
:070B230033FC5002B2D522A1
:100B2A00EC30E7100FBF000C0EBE00080DBD00042C
:100B3A000BEB6014A2D5EB13FCED92E7FD2274FFD8
:100B4A00FCFDFEFF22E480F8A2D574FF13FC7D8031
:030B5A00E480EF45
:100B5D00C0E0EFFBEEFAEDF9ECF81208F8D0E0F595
:100B6D00F0EFFBEEFAEDF9ECF8120C19A3A3A3A329
:100B7D00E8C0E0E9C0E0EAC0E0EBC0E0C0F0120878
:100B8D00F8120C29A3A3A3A3120807D0F0D0E0FB01
:0D0B9D00D0E0FAD0E0F9D0E0F8D5F0D42295
:03000000020F7577
:0C0F7500787FE4F6D8FD75811B020C8E1D
:100BAA00BB010689828A83E0225002E722BBFE0249
:090BBA00E32289828A83E493227C
:100BC300EF8DF0A4A8F0CF8CF0A428CE8DF0A42E46
:020BD300FE2200
:100BD500C2D5EC30E709B2D5E4C39DFDE49CFCEE3B
:100BE50030E715B2D5E4C39FFFE49EFE120C39C36E
:100BF500E49DFDE49CFC8003120C3930D507C3E469
:060C05009FFFE49EFE22A9
:0E0C0B00C3E49FFFE49EFEE49DFDE49CFC22FA
:100C1900E493FC740193FD740293FE740393FF2221
:100C2900E493F8740193F9740293FA740393FB2221
:100C3900BC000BBE0029EF8DF084FFADF022E4CC9F
:100C4900F875F008EF2FFFEE33FEEC33FCEE9DEC68
:100C5900984005FCEE9DFE0FD5F0E9E4CEFD22EDAE
:100C6900F8F5F0EE8420D21CFEADF075F008EF2FF8
:100C7900FFED33FD4007985006D5F0F222C398FDE9
:050C89000FD5F0EA2286
:00000001FF
