:030000000209E50D
:0C09E500787FE4F6D8FD758120020A2C12
:100948004C4344204F6B002A2A2A2A2A2A2A2A2A78
:100958002A2A2A2A2A2A2A2A2A2A2A2A2A2A2A0D0C
:100968000A002A2A2A2A2A2A38303531205465735F
:1009780074732A2A2A2A2A2A2A2A0D0A00507265FA
:100988007373203120666F72204C43442074657362
:10099800740D0A005072657373203220666F7220DE
:1009A8004C454420746573740D0A004C434420740C
:1009B80065737465640D0A004C454420746573744E
:1009C80065640D0A00496E636F7272656374206B0B
:0D09D800657920707265737365640D0A0007
:040C0F00C101C1005E
:100AD400E4F5A0C282C280C2817F38FE120BB91233
:100AE4000B5B7F067E00120BB9120B5B7F0C7E0042
:100AF400120BB9120B5B7F017E00120BB9120B5B58
:070B04007F807E00020BB9A7
:040B5B007F047E0095
:100B5F00E4FDFCC3ED9FEC9E5015E4FBFA0BBB00CC
:0F0B6F00010ABA01F8BB7EF50DBD00010C80E450
:010B7E002254
:100BB900C280C281D2828FA07F0A7E00120B5FC2DF
:020BC900822286
:100BCB00D280C281D2828FA07F0A7E00120B5FC2BD
:020BDB00822274
:100B36008B0E8A0F8910AB0EAA0FA9101208A66099
:100B4600130510E5107002050F14F91208A6FF121E
:050B56000BCB80E22240
:100800008E088F098B0A8A0B890C7C277D101208B1
:10081000F3EF24301208BFAE08AF097C277D101219
:1008200008F37E037FE8CFCDCFCECCCE1208F3EF16
:100830002430AB0AAA0BA90C9000011208D1AE0813
:10084000AF097C037DE81208F37E007F64CFCDCF33
:10085000CECCCE1208F3EF2430AB0AAA0BA90C9031
:1008600000021208D1AE08AF097C007D641208F3C3
:100870007E007F0ACFCDCFCECCCE1208F3EF24304E
:10088000AB0AAA0BA90C9000031208D1AE08AF095D
:100890007C007D0A1208F3ED2430AB0AAA0BA90CE8
:0608A0009000040208D1E3
:100BDD00758920758DCC759850D28ED2ACD2AF223E
:080C07008F993001FDC20122AA
:060B0B007BFF7A09794F1F
:100B11008B0E8A0F8910AB0EAA0FA9101208A660BE
:100B2100130510E5107002050F14F91208A6FF1243
:050B31000C0780E22228
:090BFD00E4FF3000FDC200AF99D5
:010C060022CB
:03002300020BEDE0
:100BED00309905C299D20132309804C298D20032A0
:100B7F007F807E00120BB97BFF7A097948120B3602
:0E0B8F007FD07E07120B5F7F017E00020BB944
:100B9D00D2947FE87E03120B5FD295120B5FD29633
:0C0BAD00120B5FD297120B5FE4F5902250
:100A7100E4F50D75900F120AD4120BDD120B0B7BEE
:100A8100FF7A09796A120B11120B0B7BFF7A097934
:100A910085120B117BFF7A09799C120B11120BFD48
:100AA1008F0DE50D24CE600E047016120B7F7BFFB7
:100AB1007A0979B38011120B9D7BFF7A0979C08085
:100AC100067BFF7A0979CD120B117F647E00120B30
:030AD1005F80CA79
:1009F100020A71E493A3F8E493A34003F68001F2A1
:100A010008DFF48029E493A3F85407240CC8C33306
:100A1100C4540F4420C8834004F456800146F6DFD5
:100A2100E4800B0102040810204080900C0FE47E4A
:100A3100019360BCA3FF543F30E509541FFEE493CA
:100A4100A360010ECF54C025E060A840B8E493A391
:100A5100FAE493A3F8E493A3C8C582C8CAC583CABC
:100A6100F0A3C8C582C8CAC583CADFE9DEE780BE74
:010C130000E0
:1008A600BB010689828A83E0225002E722BBFE0250
:0908B600E32289828A83E4932283
:1008BF00BB010689828A83F0225002F722BBFE0118
:0208CF00F32212
:1008D100F8BB010DE58229F582E5833AF583E8F05D
:1008E100225006E92582C8F622BBFE05E92582C809
:0208F100F222F1
:1008F300BC000BBE0029EF8DF084FFADF022E4CCE9
:10090300F875F008EF2FFFEE33FEEC33FCEE9DECB1
:10091300984005FCEE9DFE0FD5F0E9E4CEFD22EDF7
:10092300F8F5F0EE8420D21CFEADF075F008EF2F41
:10093300FFED33FD4007985006D5F0F222C398FD32
:050943000FD5F0EA22CF
:00000001FF
