:03000000020040BB
:1000400075900FD294311BC294E4E590F5717570F0
:10005000F7757205E5718572F011888573508574A6
:100060005111D4F57375900FE57354F0F590311B71
:100070007590003110E573540FC475900FF59031F1
:100080001B759000311080DD757300F574F57515E2
:10009000F0AFF01198DFFC22E5748575F0A485F0CF
:1000A00060F561E5738575F0A4F56275630011B1C3
:1000B00022AB60AC61AD62AE63EC2EF574EB3DF546
:1000C0007322AB60AC61AD62AE63ECC39EF566EBD0
:1000D0009DF565228573F0E574A87085F060F56183
:1000E000756200886311C2856560856661E565B4E7
:1000F00000F3E5669850EEE566F57322C00078FAE5
:10010000D8FED00022C000782811FCD8FCD00022F4
:10011000C00078643105D8FCD00022C000780531D9
:0601200010D8FCD0002203
:00000001FF
