:03000000020CC52A
:0C0CC500787FE4F6D8FD75812F020D0C3D
:10080000456E746572206D6963726F2D636F6E74CF
:10081000726F6C6C657220746F20626520626F72FB
:10082000726F7765643A200D0A00456E7465722018
:100830005175616E746974793A200D0A00526571C0
:10084000756573746564206D6963726F2D636F6E77
:1008500074726F6C6C6572206E6F74206176616962
:100860006C61626C652E2E2E0D0A005265717565E5
:1008700073746564206D6963726F2D636F6E74723B
:100880006F6C6C657220616C6C6F63617465642160
:100890000D0A00456E746572206D6963726F2D6379
:1008A0006F6E74726F6C6C657220746F206265205D
:1008B00072657475726E65643A200D0A00596F7521
:1008C0002063616E92742072657475726E20776811
:1008D000617420796F7520646F6E92742068617600
:1008E000652E2E2E0D0A0052657475726E65642099
:1008F0006D6963726F2D636F6E74726F6C6C65726D
:10090000206F7574206F6620626F756E64732E2E73
:100910002E0D0A0052657475726E6564206D6963F0
:10092000726F2D636F6E74726F6C6C65722072657E
:10093000636569766564210D0A004D6963726F2DE8
:10094000636F6E74726F6C6C65727320617661692F
:100950006C61626C653A20383035312D382054494D
:1009600056412D362041543332382D342053544DC6
:1009700033322D342E0D0A004D6963726F2D636F73
:100980006E74726F6C6C65727320617661696C61F4
:10099000626C653A20383035312D0020544956417B
:1009A0002D002041543332382D002053544D333222
:1009B0002D002E0D0A005072657373204920666F5A
:1009C0007220497373756520616E64205220666FD2
:0B09D000722052657475726E0D0A00F3
:100DFC00C101C1000A08000000080006000400043C
:0C0E0C000A1200000008000600040004A8
:100D5100E4F5A0C282C280C2817F38FE120E191250
:100D61000DD87F067E00120E19120DD87F0C7E0061
:100D7100120E19120DD87F017E00120E19120DD814
:070D81007F807E00020E19C5
:040DD8007F047E0016
:100DDC00E4FDFCC3ED9FEC9E5015E4FBFA0BBB004D
:0F0DEC00010ABA01F8BB7EF50DBD00010C80E4D1
:010DFB0022D5
:100E1900C280C281D2828FA07F0A7E00120DDCC2FD
:020E2900822223
:100E2B00D280C281D2828FA07F0A7E00120DDCC2DB
:020E3B00822211
:100DB3008B1C8A1D891EAB1CAA1DA91E120C236045
:100DC30013051EE51E7002051D14F9120C23FF12F4
:050DD3000E2B80E2225E
:100B7D008E2B8F2C8B2D8A2E892F7C277D10120C7E
:100B8D0070EF2430120C3CAE2BAF2C7C277D101255
:100B9D000C707E037FE8CFCDCFCECCCE120C70EF94
:100BAD002430AB2DAA2EA92F900001120C4EAE2B86
:100BBD00AF2C7C037DE8120C707E007F64CFCDCF0F
:100BCD00CECCCE120C70EF2430AB2DAA2EA92F90C7
:100BDD000002120C4EAE2BAF2C7C007D64120C70FB
:100BED007E007F0ACFCDCFCECCCE120C70EF24304D
:100BFD00AB2DAA2EA92F900003120C4EAE2BAF2CAD
:100C0D007C007D0A120C70ED2430AB2DAA2EA92F7D
:060C1D00900004020C4EE1
:100E3D00758920758DCC759850D28ED2ACD2AF22DB
:030E5D002430FF3F
:080E60008F993001FDC201224F
:060D88007BFF7A08792AC6
:100D8E008B288A29892AAB28AA29A92A120C236022
:100D9E0013052AE52A7002052914F9120C23FF12F5
:050DAE000E6080E2224E
:090E6800E4FF3000FDC200AF9967
:010E7100225E
:03002300020E4D7D
:100E4D00309905C299D20132309804C298D200323D
:1009DB00E4F521120D51120E3DE52124AE700302F8
:1009EB000A7124E9600B24F7607C24296003020B55
:1009FB00177BFF7A087900120D8E120E688F22EF8B
:100A0B0024D0F524E434FFF523120D88120E688FE1
:100A1B0025EF24D0F527E434FFF526E52425E02443
:100A2B0008F8E6FE08E6FFD3E5279FEE6480F8E5BD
:100A3B00266480987BFF400A7A08793D120D8E025E
:100A4B000B127A08796B120D8EE52425E02408F839
:100A5B00C000E6FE08E6C39527FFEE9526D000F60C
:100A6B0008A607020B127BFF7A087993120D8E12E0
:100A7B000E688F22EF24D0F524E434FFF523AF2446
:100A8B00EF25E02412F8E6FC08E6FDEF25E024084C
:100A9B00F8E6FE08E6B5050FEEB5040B7BFF7A080A
:100AAB0079BD120D8E8060120D88120E688F25EFA6
:100ABB0024D0F527E434FFF526AF24EF25E02408F6
:100ACB00F8E6FC08E62527FDE5263CFCEF25E024AF
:100ADB0012F8E6FE08E6FFD3ED9FEE6480F8EC64B7
:100AEB0080987BFF40097A0879E7120D8E80187A7F
:100AFB00097914120D8EE52425E02408F808E52762
:100B0B0026F618E52636F6E4F521805C7BFF7A099C
:100B1B00793A120D8E7BFF7A097978120D8EE509E1
:100B2B00120E5D7BFF7A09799B120D8EE50B120E6F
:100B3B005D7BFF7A0979A2120D8EE50D2430FF1231
:100B4B000E607BFF7A0979AA120D8EE50F2430FF18
:100B5B00120E607BFF7A0979B2120D8E7BFF7A0938
:100B6B0079B6120D8E120E687F647E00120DDC02B8
:020B7B0009E48B
:100CD1000209DBE493A3F8E493A34003F68001F255
:100CE10008DFF48029E493A3F85407240CC8C33324
:100CF100C4540F4420C8834004F456800146F6DFF3
:100D0100E4800B0102040810204080900DFCE47E79
:100D1100019360BCA3FF543F30E509541FFEE493E7
:100D2100A360010ECF54C025E060A840B8E493A3AE
:100D3100FAE493A3F8E493A3C8C582C8CAC583CAD9
:100D4100F0A3C8C582C8CAC583CADFE9DEE780BE91
:010E180000D9
:100C2300BB010689828A83E0225002E722BBFE02CF
:090C3300E32289828A83E4932202
:100C3C00BB010689828A83F0225002F722BBFE0197
:020C4C00F32291
:100C4E00F8BB010DE58229F582E5833AF583E8F0DC
:100C5E00225006E92582C8F622BBFE05E92582C888
:020C6E00F22270
:100C7000BC000BBE0029EF8DF084FFADF022E4CC68
:100C8000F875F008EF2FFFEE33FEEC33FCEE9DEC31
:100C9000984005FCEE9DFE0FD5F0E9E4CEFD22ED77
:100CA000F8F5F0EE8420D21CFEADF075F008EF2FC1
:100CB000FFED33FD4007985006D5F0F222C398FDB2
:050CC0000FD5F0EA224F
:00000001FF
