:03000000020100FA
:0B01000012016A1201CF12020980FEFA
:10013000C000C001795078643156D8FCD9F8D0019C
:10014000D00022C000C001792878643156D8FCD98B
:10015000F8D001D00022C00078043161D8FCD00072
:1001600022C00078F4D8FED0002275901F3130E50F
:10017000909410C4F55075902F3130E5909420255F
:1001800050F55075903F3130E5909430C4F551757D
:10019000904F3130E59094402551F55175905F3185
:1001A00030E5909450C4F55275906F3130E59094DD
:1001B000602552F55275907F3130E5909470C4F50A
:1001C0005375908F3130E59094802553F553227804
:1001D000507A04E61201DCF608DAF822F5F0C3944E
:1001E00040601D5003741022E5F0C39480601450E9
:1001F00003742022E5F0C394C0600B5009744022C0
:1002000074202274402274802278507A04869012DE
:08021000014308DAF880F22234
:00000001FF
