:100B3F00100800F0010E012C013E0164018A01BA78
:100B4F0001D6101A01F402EE03E801F403E802EEF5
:0C0B5F0003E801F4022C0001022E00004B
:100A7000758C3C758AB0EF24FFFFEE34FFAB07FAAC
:100A80003395E0F9F87F407E427D0F7C00120AB971
:100A9000C374FE9FF51974FF9EF518FEAF197C0113
:100AA0007D001208008F8DAE18AF197C017D0012F9
:090AB00008008D8BD28CD28E223D
:03000B000209E502
:1009E500C0E0C0F0C083C082C0D075D000C000C0D8
:1009F50001C002C003C004C005C006C007052DE53F
:100A05002D7002052CE52F25E0241AF8E6FE08E6F0
:100A1500FF7C007D19120800EF2401FFE43EFEEF84
:100A2500B52D1EEEB52C1AE52F6407452E7004F57D
:100A35002EF52F052FE52F7002052E752C00752D2F
:100A450001E52F25E02408F8E6FE08E6FF120A7006
:100A5500D007D006D005D004D003D002D001D000F5
:0B0A6500D0D0D082D083D0F0D0E0329F
:03001B00020AFDD9
:100AFD00C0E0C0F0C0D075D000C000C004C005C0BB
:100B0D0006C007B287AE18AF197C017D0012080030
:100B1D008F8DAE18AF197C017D001208008D8BD220
:100B2D008ED007D006D005D004D000D0D0D0F0D0D4
:020B3D00E032A4
:100B6C00758911D2A9D2ABD2AFAF09AE08120A70F7
:020B7C0080FEF9
:0300000002095999
:0C095900787FE4F6D8FD75812F0209A01C
:10080000C2D5EC30E709B2D5E4C39DFDE49CFCEE13
:1008100030E715B2D5E4C39FFFE49EFE120836C34D
:10082000E49DFDE49CFC800312083630D507C3E448
:060830009FFFE49EFE2282
:100AB900C2D5E830E70FB2D5E4C39BFBE49AFAE468
:100AC90099F9E498F8EC30E717B2D5120AEF120851
:100AD900C7E4C39BFBE49AFAE499F9E498F8800324
:100AE9001208C730D50DE4C39FFFE49EFEE49DFDC7
:040AF900E49CFC225B
:10096500020B6CE493A3F8E493A34003F68001F231
:1009750008DFF48029E493A3F85407240CC8C33393
:10098500C4540F4420C8834004F456800146F6DF62
:10099500E4800B0102040810204080900B3FE47EA8
:1009A500019360BCA3FF543F30E509541FFEE49357
:1009B500A360010ECF54C025E060A840B8E493A31E
:1009C500FAE493A3F8E493A3C8C582C8CAC583CA49
:1009D500F0A3C8C582C8CAC583CADFE9DEE780BE01
:010B6B000089
:10083600BC000BBE0029EF8DF084FFADF022E4CCA6
:10084600F875F008EF2FFFEE33FEEC33FCEE9DEC6F
:10085600984005FCEE9DFE0FD5F0E9E4CEFD22EDB5
:10086600F8F5F0EE8420D21CFEADF075F008EF2FFF
:10087600FFED33FD4007985006D5F0F222C398FDF0
:050886000FD5F0EA228D
:10088B0075F008758200EF2FFFEE33FECD33CDCC24
:10089B0033CCC58233C5829BED9AEC99E5829840A7
:1008AB000CF582EE9BFEED9AFDEC99FC0FD5F0D684
:1008BB00E4CEFBE4CDFAE4CCF9A88222B800C1B9AE
:1008CB000059BA002DEC8BF084CFCECDFCE5F0CBEC
:1008DB00F97818EF2FFFEE33FEED33FDEC33FCEB25
:1008EB0033FB10D703994004EB99FB0FD8E5E4F9E0
:1008FB00FA227818EF2FFFEE33FEED33FDEC33FCCD
:10090B00C933C910D7059BE99A4007EC9BFCE99AC0
:10091B00F90FD8E0E4C9FAE4CCFB2275F010EF2F05
:10092B00FFEE33FEED33FDCC33CCC833C810D70705
:10093B009BEC9AE899400AED9BFDEC9AFCE899F840
:0E094B000FD5F0DAE4CDFBE4CCFAE4C8F922D3
:00000001FF
